:100000000C942A000C945E030C943C000C943C006D
:100010000C943C000C943C000C943C000C943C0070
:100020000C943C000C943C000C943C000C943C0060
:100030000C943C000C943C000C943C000C943C0050
:100040000C943C000C943C000C943C000C943C0040
:100050000C943C0011241FBECFE5D8E0DEBFCDBF1D
:1000600020E0A0E6B0E001C01D92A236B207E1F7A1
:100070000E94EB030C94F0030C940000613041F1FA
:1000800038F0623009F444C0633009F460C07EC0C7
:1000900041110EC04AB321E030E0B90102C0660F41
:1000A000771F8A95E2F7CB01809584238ABB6DC0C8
:1000B000413009F06DC04AB321E030E0B90102C01F
:1000C000660F771F8A95E2F7CB01842B8ABB5DC050
:1000D00041110EC047B321E030E0B90102C0660F04
:1000E000771F8A95E2F7CB018095842387BB4DC0AB
:1000F000413009F04FC047B321E030E0B90102C000
:10010000660F771F8A95E2F7CB01842B87BB3DC032
:1001100041110EC044B321E030E0B90102C0660FC6
:10012000771F8A95E2F7CB018095842384BB2DC08D
:10013000413091F544B321E030E0B90102C0660FCF
:10014000771F8A95E2F7CB01842B84BB1EC0411137
:100150000EC041B321E030E0B90102C0660F771F45
:100160008A95E2F7CB018095842381BB0EC0413094
:10017000A9F441B321E030E0B90102C0660F771F56
:100180008A95E2F7CB01842B81BB08958CEF08950B
:100190008EEF08958EEF08958EEF08958EEF0895F7
:1001A000613041F138F0623009F444C0633009F441
:1001B00060C07EC041110EC04BB321E030E0B901F8
:1001C00002C0660F771F8A95E2F7CB0180958423E2
:1001D0008BBB6DC0413009F06DC04BB321E030E006
:1001E000B90102C0660F771F8A95E2F7CB01842B15
:1001F0008BBB5DC041110EC048B321E030E0B901B6
:1002000002C0660F771F8A95E2F7CB0180958423A1
:1002100088BB4DC0413009F04FC048B321E030E009
:10022000B90102C0660F771F8A95E2F7CB01842BD4
:1002300088BB3DC041110EC045B321E030E0B9019B
:1002400002C0660F771F8A95E2F7CB018095842361
:1002500085BB2DC0413091F545B321E030E0B901B7
:1002600002C0660F771F8A95E2F7CB01842B85BB0E
:100270001EC041110EC042B321E030E0B90102C0FE
:10028000660F771F8A95E2F7CB018095842382BBA6
:100290000EC04130A9F442B321E030E0B90102C000
:1002A000660F771F8A95E2F7CB01842B82BB0895F6
:1002B0008CEF08958FEF08958FEF08958FEF0895D5
:1002C0008FEF0895613099F028F06230E9F06330E3
:1002D00041F134C04BB321E030E0B90102C0660FF8
:1002E000771F8A95E2F7CB0184278BBB29C048B3DF
:1002F00021E030E0B90102C0660F771F8A95E2F76E
:10030000CB01842788BB1CC045B321E030E0B90194
:1003100002C0660F771F8A95E2F7CB01842785BB61
:100320000FC042B321E030E0B90102C0660F771F71
:100330008A95E2F7CB01842782BB02C08CEF089537
:1003400008956130E9F030F0623081F1633009F4F2
:1003500043C058C099B321E030E0A901082E02C083
:10036000440F551F0A94E2F7292F30E02423352348
:10037000A90102C0569547958A95E2F7CA010895EA
:1003800096B321E030E0A901082E02C0440F551FAA
:100390000A94E2F7292F30E024233523A90102C073
:1003A000569547958A95E2F7CA01089593B321E0DF
:1003B00030E0A901082E02C0440F551F0A94E2F74D
:1003C000292F30E024233523A90102C056954795F3
:1003D0008A95E2F7CA01089590B321E030E0A901BF
:1003E000082E02C0440F551F0A94E2F7292F30E06F
:1003F00024233523A90102C0569547958A95E2F733
:10040000CA0108958CEF08959FB790689FBF81300F
:1004100061F120F0823009F44FC05CC08BB780647A
:100420008BBF611107C085B7826085BF85B78E7F9E
:1004300085BF50C0613039F485B7826085BF85B70C
:10044000816085BF47C0623039F485B78D7F85BF35
:1004500085B78E7F85BF3EC06330E9F585B7816083
:1004600085BF85B78D7F85BF35C08BB780688BBF53
:10047000611107C085B7886085BF85B78B7F85BF51
:1004800029C0613039F485B7886085BF85B784603D
:1004900085BF20C0623039F485B7877F85BF85B7B7
:1004A0008B7F85BF17C06330B1F485B7846085BF8B
:1004B00085B7877F85BF0EC08BB780628BBF611108
:1004C00004C084B78F7B84BF05C0613021F484B73A
:1004D000806484BF089584E00895813069F028F035
:1004E000823089F08330B1F01CC083B78F7B83BF2B
:1004F00083B7877F83BF17C083B78F7B83BF83B7E3
:10050000886083BF10C083B7806483BF83B7877F51
:1005100083BF09C083B7806483BF83B7886083BF0C
:1005200002C084E00895089593B7987F93BF93B76E
:10053000892B83BF90E007C008B600FEFDCF88B7C7
:10054000816088BF9F5F9939B8F3089593B7987F0A
:1005500093BF93B7892B83BF089593B7987F93BFB9
:1005600093B7892B83BF90E007C008B600FEFDCF8C
:1005700088B7816088BF9F5F9031B8F3089582BFCC
:10058000089540E00E943E0008950E94A101089550
:1005900041E00E943E00089541E00E94D00008958D
:1005A00040E00E94D00008950E946201089560E03A
:1005B00080E00E94C80260E081E00E94C80260E022
:1005C00082E00E94C80261E080E00E94C80261E00F
:1005D00081E00E94C80261E082E00E94C80263E0FC
:1005E00082E00E94C10240E063E082E00E943E009F
:1005F00041E063E082E00E94D00080E00E946D0252
:1006000080E00E94BF0285E00E94A60260E080E0D8
:100610000E9404020895109261008CE00E94BF02C3
:1006200010C060E081E00E94D40261E081E00E949D
:10063000D40285E00E94AD02809161008F5F8093BB
:100640006100809161008A3061F760E081E00E9482
:10065000D00261E081E00E94D00210926100089512
:1006600060E082E00E94CC0261E080E00E94CC0267
:1006700085E00E9494020E940B0360E082E00E94E9
:10068000D00261E080E00E94D00260E080E00E9441
:10069000CC0261E082E00E94CC0285E00E949402DC
:1006A0000E940B0360E080E00E94D00261E082E0E3
:1006B0000E94D00208950E94300308951F920F9265
:1006C0000FB60F9211242F933F934F935F936F9325
:1006D0007F938F939F93AF93BF93CF93EF93FF93AA
:1006E000809160008F5F80936000C0E009C0CA30D5
:1006F00000F508B600FEFDCF88B7816088BFCF5FE8
:1007000063E082E00E94C502811115C08091600003
:10071000833068F3C0E010C0CA3040F408B600FE71
:10072000FDCF88B7816088BFCF5F06C010926000A0
:100730000DC0C0E001C0C0E063E082E00E94C502DD
:10074000813021F480916000833030F363E082E0F7
:100750000E94C502813069F580916000823048F5C1
:10076000CA9B27C00E940B0360E082E00E94D00277
:1007700060E080E00E94CC0261E080E00E94D00254
:1007800061E082E00E94CC0285E00E9494020E9417
:100790000B0360E080E00E94D00261E082E00E94F2
:1007A000D00260E082E00E94CC0261E080E00E9422
:1007B000CC02FF91EF91CF91BF91AF919F918F911B
:1007C0007F916F915F914F913F912F910F900FBE4D
:1007D0000F901F9018950E94D7020E945B03FDCFD7
:0407E000F894FFCFBB
:00000001FF
